:100000005CC000007FC000007DC000007BC000001D
:1000100079C0000077C0000075C0000073C0000008
:1000200071C000006FC000006DC000006BC0000018
:1000300069C0000067C0000065C0000063C0000028
:10004000C6C100005FC0000034C3000064C30000EC
:1000500059C0000057C0000055C0000053C0000048
:1000600051C000004FC00000000000080002010065
:100070000003040700000000000000000102040863
:100080001020408001020408102001020408102002
:10009000040404040404040402020202020203032E
:1000A0000303030300000000250028002B000000CC
:1000B0000000240027002A00B90311241FBECFEF3F
:1000C000D8E0DEBFCDBF11E0A0E0B1E0E6EBFBE0A1
:1000D00002C005900D92AC31B107D9F721E0ACE137
:1000E000B1E001C01D92A23CB207E1F710E0CDE5FE
:1000F000D0E003C02197FE0156D5CC35D107D1F70A
:100100008FD357C57DCF61E084E00FD261E084E0FA
:1001100048D261E088E009D261E088E042D261E043
:1001200085E003D261E086E000D261E089E0FDD1A4
:1001300061E08AE0FAD126E040E855E260E070E054
:1001400085E291E04AC48F929F92AF92BF92CF9284
:10015000DF92EF92FF920F931F93CF93DF9300D024
:100160001F92CDB7DEB79827892798279A8389836E
:1001700083E0E82EF12C92E0C92ED12C00E010E0B3
:10018000A601401B510B61E070E06C0F7D1F600FFA
:10019000711F85E291E01AD3080F191F0230110573
:1001A00078F399818A81890F8B8341E050E0BE0109
:1001B0006D5F7F4F85E291E009D385E291E03AD30C
:1001C000892BD9F385E291E04FD38C011127B80137
:1001D0006F5F7109072E000C880B990B63D44B01DC
:1001E0005C01E894B7F8B801110F880B990B5AD449
:1001F0009B01AC01C501B4014FD487FD05C081E06E
:10020000E81AF10809F0BACF0F900F900F90DF9124
:10021000CF911F910F91FF90EF90DF90CF90BF9003
:10022000AF909F908F900895EF92FF920F931F933E
:10023000CF93DF9300D0CDB7DEB783E0E82EF12C6B
:1002400085E291E0F7D2892BD9F385E291E00CD3D6
:10025000898385E291E0EED2892BD9F385E291E0A2
:1002600003D38A8385E291E0E5D2892BD9F385E235
:1002700091E0FAD209811A81912F900F41E050E06C
:10028000981310C069E071E085E291E09FD2902F51
:10029000812F0F900F90DF91CF911F910F91FF90C1
:1002A000EF90089568E071E085E291E08FD281E0FF
:1002B000E81AF10809F0C4CFEACFCF92DF92EF92AB
:1002C000FF920F931F93CF93DF93CDB7DEB728979D
:1002D0000FB6F894DEBF0FBECDBFA6DF823091050A
:1002E000D9F0A0F4009709F46BC0019731F128967A
:1002F0000FB6F894DEBF0FBECDBFDF91CF911F9137
:100300000F91FF90EF90DF90CF900895833091058B
:1003100009F456C0049759F780E090E028960FB68C
:10032000F894DEBF0FBECDBFDF91CF911F910F912B
:10033000FF90EF90DF90CF9006CF76DF8C0174DFD7
:10034000980121503F4F2F3F314088F69C012150AA
:100350003F4F2F3F314058F6FE01319628E0DF0134
:100360001D922A95E9F71A8309839E838D8317FFCF
:1003700007C01A8219821195019511091C830B83FC
:1003800097FF07C01E821D829195819591099887DC
:100390008F838F0180E0E82E81E0F82E6E01B9E0B6
:1003A000CB0ED11CF801619171918F01D7018C9115
:1003B000B2E0EB0EF11C22D1C016D10699F797CF0F
:1003C00080E090E0C0DE80E090E0BDDEA5CF1F922F
:1003D0000F920FB60F9211242F933F938F939F93F9
:1003E000AF93BF9380911D0190911E01A0911F01B9
:1003F000B091200130911C0123E0230F2D3758F5D7
:100400000196A11DB11D20931C0180931D019093A5
:100410001E01A0931F01B0932001809121019091B2
:100420002201A0912301B09124010196A11DB11DCB
:100430008093210190932201A0932301B093240182
:10044000BF91AF919F918F913F912F910F900FBED0
:100450000F901F90189526E8230F0296A11DB11D3D
:10046000D2CF789484B5826084BD84B5816084BD28
:1004700085B5826085BD85B5816085BDEEE6F0E01D
:10048000808181608083E1E8F0E010828081826079
:100490008083808181608083E0E8F0E080818160FA
:1004A0008083E1EBF0E0808184608083E0EBF0E02A
:1004B000808181608083EAE7F0E0808184608083CE
:1004C0008081826080838081816080838081806878
:1004D00080831092C1000895833081F028F4813028
:1004E00099F08230A9F008958730A9F08830C9F0DA
:1004F0008430B1F4809180008F7D03C080918000B2
:100500008F7780938000089584B58F7784BD089598
:1005100084B58F7DFBCF8091B0008F778093B00042
:1005200008958091B0008F7DF9CFCF93DF9390E055
:10053000FC01E458FF4F249180579F4FFC018491A8
:100540008823C9F090E0880F991FFC01E255FF4F06
:10055000A591B491FC01EC55FF4FC591D491611167
:100560000DC09FB7F8948C91209582238C9388813D
:10057000282328839FBFDF91CF910895623051F4E3
:100580009FB7F8943C91822F809583238C93E881C8
:100590002E2BEFCF8FB7F894EC912E2B2C938FBF8F
:1005A000EACF1F93CF93DF93162F282F30E0F90166
:1005B000E859FF4F8491F901E458FF4FD491F901B4
:1005C000E057FF4FC491CC2399F0811185DFEC2FC8
:1005D000F0E0EE0FFF1FEC55FF4FA591B4918FB7E0
:1005E000F894EC91111108C0D095DE23DC938FBFF5
:1005F000DF91CF911F910895DE2BF8CF1F93CF93FA
:10060000DF93182FEB0161E090DF209731F460E079
:10061000812FDF91CF911F91C4CFCF3FD10511F42E
:1006200061E0F6CFE12FF0E0E859FF4FE491E330CD
:1006300031F140F4E130B1F0E230E1F0C038D10501
:100640007CF7E5CFE73029F1E83059F1E430B1F734
:1006500080918000806280938000D0938B00C09353
:100660008A0004C084B5806884BDC7BDDF91CF9186
:100670001F91089584B5806284BDC8BDF7CF809175
:100680008000806880938000D0938900C0938800A8
:10069000EDCF8091B00080688093B000C093B3002C
:1006A000E5CF8091B00080628093B000C093B40029
:1006B000DDCF1F920F920FB60F9211242F938F93BD
:1006C0009F93EF93FF93E0913501F0913601808184
:1006D000E0913B01F0913C0182FD1BC09081809133
:1006E0003E018F5F8F7320913F01821741F0E091AF
:1006F0003E01F0E0EB5DFE4F958F80933E01FF9150
:10070000EF919F918F912F910F900FBE0F901F909F
:1007100018958081F4CF1F920F920FB60F9211247B
:100720002F933F934F935F936F937F938F939F93F9
:10073000AF93BF93EF93FF9385E291E0C6D0FF9113
:10074000EF91BF91AF919F918F917F916F915F9149
:100750004F913F912F910F900FBE0F901F901895C2
:1007600085E291E067D021E0892B09F420E0822F17
:100770000895E5E2F1E01382128288EE93E0A0E0B2
:10078000B0E084839583A683B7838EE091E0918364
:10079000808385EC90E09587848784EC90E0978750
:1007A000868780EC90E0918B808B81EC90E0938B3E
:1007B000828B82EC90E0958B848B86EC90E0978B1B
:1007C000868B118E128E138E148E0895CF92DF9227
:1007D000EF92FF920F931F93CF93DF937C016A01F7
:1007E0008B01C0E0D0E0CC15DD0579F0D8016D912A
:1007F0008D01D701ED91FC910190F081E02DC701B1
:100800000995892B11F02196EECFCE01DF91CF9182
:100810001F910F91FF90EF90DF90CF900895089572
:1008200020DEFDDF70DCC8E5D4E047DD2097E9F38A
:100830003FD0FBCFFC01918D228D892F90E0805C11
:100840009F4F821B91098F7399270895FC01918D09
:10085000828D981731F0828DE80FF11D858D90E023
:1008600008958FEF9FEF0895FC01918D828D981769
:1008700061F0828DDF01A80FB11D5D968C91928D84
:100880009F5F9F73928F90E008958FEF9FEF089581
:10089000FC01238D848D30E090E02817390724F087
:1008A000821B930BCF960895821B930B019708959B
:1008B00080EB93E0892B41F080E090E0892B21F0E0
:1008C0004FDF81110C9400000895FC01848DDF013D
:1008D000A80FB11DA35ABF4F2C91848D90E00196B3
:1008E0008F739927848FA689B7892C93A089B189A2
:1008F0008C9180648C93938D848D981306C00288AC
:10090000F389E02D80818F7D80830895CF93DF93DD
:10091000EC01888D882351F0EA89FB89808185FD6F
:1009200008C0A889B9898C9186FF03C0DF91CF9157
:1009300008950FB607FCF2CF808185FFEFCFE889DD
:10094000F989808185FFE8CFCE01BFDFE5CFEF9247
:10095000FF920F931F93CF93DF93EC01F62E81E06C
:10096000888F9B8D8C8D981305C0E889F9898081CB
:1009700085FD2BC00B8D10E00F5F1F4F0F731127EC
:10098000E02E8C8DE8120BC00FB607FCFACFE88979
:10099000F989808185FFF5CFCE0197DFF2CF8B8D6E
:1009A000FE01E80FF11DE35AFF4FF0820B8FEA8939
:1009B000FB8980818062808381E090E0DF91CF912C
:1009C0001F910F91FF90EF900895EE89FF8960834A
:1009D000E889F98980818064EECFCF92DF92EF922F
:1009E000FF921F93CF93DF93EC016A017B01122FDB
:1009F000E889F98982E080834115514E61057105CE
:100A000099F060E079E08DE390E0A7019601A9D02C
:100A10002150310941095109569547953795279538
:100A2000211580E1380790F0E889F989108260E8A3
:100A300074E88EE190E0A701960193D0215031092E
:100A4000410951095695479537952795EC85FD85C0
:100A50003083EE85FF852083188EEC89FD89108315
:100A6000EA89FB89808180618083EA89FB898081B2
:100A700088608083EA89FB89808180688083EA8935
:100A8000FB8980818F7D8083DF91CF911F91FF90C3
:100A9000EF90DF90CF90089540D008F481E0089562
:100AA000E89409C097FB3EF4909580957095619508
:100AB0007F4F8F4F9F4F9923A9F0F92F96E9BB27BE
:100AC0009395F695879577956795B795F111F8CF3A
:100AD000FAF4BB0F11F460FF1BC06F5F7F4F8F4FA5
:100AE0009F4F16C0882311F096E911C0772321F09B
:100AF0009EE8872F762F05C0662371F096E8862F33
:100B000070E060E02AF09A95660F771F881FDAF789
:100B1000880F9695879597F90895990F0008550FB6
:100B2000AA0BE0E8FEEF16161706E807F907C0F073
:100B300012161306E407F50798F0621B730B840B7B
:100B4000950B39F40A2661F0232B242B252B21F455
:100B500008950A2609F4A140A6958FEF811D811DF5
:100B60000895A1E21A2EAA1BBB1BFD010DC0AA1FEE
:100B7000BB1FEE1FFF1FA217B307E407F50720F006
:100B8000A21BB30BE40BF50B661F771F881F991F81
:100B90001A9469F760957095809590959B01AC01CA
:100BA000BD01CF010895EE0FFF1F0590F491E02DD8
:060BB0000994F894FFCF48
:100BB6000500060009000A0000FF00000000A70467
:0C0BC600E603480486041A0434042604E4
:00000001FF
